:1000000002000E00000000000000000209BA758125
:1000100085120126E582600302007A780079007A71
:10002000007B007C007D00EC4D601C88828983E4AD
:1000300093A3A882A9838A828B83F0A3AA82AB832D
:100040001CBCFFE31D80E07582007583007C007D91
:1000500000EC4D600AE4F0A31CBCFFF51D80F275B6
:1000600082007583007C007D00EC4D600AE4F0A303
:100070001CBCFFF51D80F21200CD12125580FE1B34
:100080005B323B3148736D616C6C646966666572A6
:10009000656E63651B5B324B001B5B324A0050721E
:1000A0006F6A6563742032204D6F746F7220436FE6
:1000B0006E74726F6C2052756E6E696E672E2E2E86
:1000C0000A003C4E4F20464C4F41543E00752500DF
:1000D000752600E4F527F528E4F529F52A753C0393
:1000E000753D21753E1D753F3F754900754A007588
:1000F0004B16754C44754D00754E00754F16755076
:100100004475510075520075531675544475550069
:10011000755600755716755844755900755A00750F
:100120005B16755C442275E60075E70075D60075B0
:10013000D70075CE0075CF0075C60075C700758EE7
:100140001175BE0075BF0090FFFA12166F438780CD
:10015000759852759B00759AFA759B1EC28CC28E5B
:1001600075891175F4FF758CFF75F248758A4875AD
:10017000F598758D9875F300758B00C28CC28ED280
:10018000A9C2ABD2AF75220075820022AA82AB83CE
:100190007C00C002C003C004120214D004D003D0FB
:1001A000027D00BD08005054758200C002C003C02B
:1001B00004C005120232AE82AF83D005D004D00352
:1001C000D002C3EA9EEB64808FF063F08095F0501C
:1001D000108DF005F07401800225E0D5F0FBFE8063
:1001E000027E00EE4204C002C003C004C005120239
:1001F00006D005D004D003D0020D80A7C00412029F
:1002000014D0048C82227A14791E7816D8FED9FA7A
:10021000DAF622227A1E791E7816D8FED9FADAF694
:100220002222AA8253C47F8AC5748055C4FABA8038
:10023000F822AA8253C3BF75C33F43C340C294741C
:10024000184AF5821202227A0A7B001ABAFF011BB1
:10025000EA4B70F7758255120222743F55C5FB7A3E
:1002600000758255C002C003120222D003D002D210
:100270009474F055C5FC7D00EC2AFAED3BC4CAC469
:10028000540F6ACA540FCA6ACA8A82F58322AA82A4
:10029000AB83ACF0FDE55E6020C002C003C004C0CB
:1002A0000590B9D975F0B3743F1214DDAA82AB83FF
:1002B000ACF0FDE58124FCF581E55D705875270102
:1002C000E4F528852782852883C002C003C004C0C6
:1002D00005121680AE82AF83A8F0F9D005D004D005
:1002E00003D002C002C003C004C005C002C003C0E6
:1002F00004C0058E828F8388F0E91214ADAE82E5CA
:100300008124FCF581D005D004D003D002EE70B377
:10031000F527F52822752601EA4B4C8DF0C2F745EA
:10032000F0600280087A007B007C207D418A828B0D
:10033000838CF0ED12147985822985832A75270133
:10034000E4F52822AA82E561FB3395E0FC7465C3DD
:100350009BFBE49CFCC374E48560F063F08095F043
:100360005003756064C374E4855FF063F08095F0BA
:100370005003755F64C374E48561F063F08095F0A9
:100380005003756164C374888AF063F08095F050FF
:1003900003020448EA30E703020448E56160577D40
:1003A00000C3ED6480948A5053ED242BF8EDFE33A6
:1003B00095E0FF8E828F83A3A3A3A3A3E55FF57CC3
:1003C0003395E0F57DC002C003C004C005C0001233
:1003D0001580AE82AF83757C0EE4F57D8E828F83AF
:1003E00012162CAE82AF83D000D005D004D003D03B
:1003F00002A6060D80ABAD5F8D248D238A25E527EF
:1004000045286006752701E4F528E5617001227D25
:1004100000C3ED6480948A400122E52745287001DD
:1004200022ED242BF886068E248E238B7C8C7D85F2
:100430002782852883C003C00412162CAE82AF83A6
:10044000D004D0038E0580C9BA093B752501855FAC
:1004500023E560FB3395E0FC7464C39BF57CE49C6E
:10046000F57DE55FFB3395E0FC8B828C8312158074
:10047000AB82AC83757C64E4F57D8B828C83121631
:100480002CAB828B2422BA0A3B752501E560FB3335
:1004900095E0FC7464C39BF57CE49CF57DE55FFB13
:1004A0003395E0FC8B828C83121580AB82AC837514
:1004B0007C64E4F57D8B828C8312162CAB828B23BB
:1004C000855F2422BA0B3B752502855F23E560FB1F
:1004D0003395E0FC7464C39BF57CE49CF57DE55F9B
:1004E000FB3395E0FC8B828C83121580AB82AC834E
:1004F000757C64E4F57D8B828C8312162CAB828B29
:100500002422BA0C3B752502E560FA3395E0FB74B2
:1005100064C39AF57CE49BF57DE55FFA3395E0FBD7
:100520008A828B83121580AA82AB83757C64E4F582
:100530007D8A828B8312162CAA828A23855F2422CD
:1005400075250022755F2875600075610075820150
:10055000120344755D00755E0190000075F0C8746B
:100560004212028E755F1E75600075610075820112
:10057000120344755D00755E0190000075F0C8744B
:100580004212028E755F0F75600075610075820101
:10059000120344755D00755E0190000075F0C8742B
:1005A0004212028E75250022E582FA603BE5624523
:1005B000636035856282856383121680AA82AB836D
:1005C000ACF0FD755D01755E018A828B838CF0ED68
:1005D00012028E755F327560007561467582011278
:1005E0000344E525603B80FAE5624563603385623C
:1005F00082856383121680AA82AB83ACF0FD755DA1
:1006000001755E018A828B838CF0ED12028E755F1C
:1006100032756000756146758202120344E52570EB
:10062000FC755D01755E0190C00075F0B7744412F1
:10063000028E755F4B75604675610075820A120304
:1006400044E52570FC755F28F560F561758201123F
:100650000344856482856583121680AA82AB83ACCD
:10066000F0FD755D00755E018A828B838CF0ED1262
:10067000028E020544755D01755E0190800075F083
:1006800089744412028E755F28756000756150751B
:100690008202120344E52570FC755D01755E0190D0
:1006A000000075F048744312028E755F287560284B
:1006B00075610075820B120344E52570FC755D01C0
:1006C000755E0190000075F0C8744212028E755F6D
:1006D0002875603275610075820B120344E5257040
:1006E000FC755D01755E0190000075F04874431261
:1006F000028E755F2875603775610075820B120375
:1007000044E52570FC755D01755E0190000075F093
:1007100048744312028E755F2875604175610075DB
:10072000820B120344E52570FC755D01755E019036
:10073000000075F0B9744312028E755F287560462B
:1007400075610075820B120344E52570FC755D012F
:10075000755E0190000075F016744312028E755F8D
:100760002875604175610075820B120344E52570A0
:10077000FC755D01755E0190000075F01674431202
:10078000028E755F2875603775610075820B1203E4
:1007900044E52570FC755D01755E0190000075F003
:1007A000C8744212028E755F2875603275610075DB
:1007B000820B120344E52570FC755D01755E0190A6
:1007C000000075F0C8744212028E755F28756028AB
:1007D00075610075820B120344E52570FC755D019F
:1007E000755E0190000075F096744412028E755F7C
:1007F00028756000756100758202120344E525705A
:10080000FC755D01755E0190000075F07A7443120D
:10081000028E755F2875602875610075820C120361
:1008200044E52570FC755D01755E0190000075F072
:1008300096744312028E755F2875603C7561007571
:10084000820C120344E52570FC755D01755E019014
:10085000800075F00E744412028E755F287560502A
:1008600075610075820C120344E52570FC755D010D
:10087000755E0190000075F07A744312028E755F08
:100880002875603775610075820C120344E5257088
:10089000FC755D01755E0190000075F0C874421230
:1008A000028E755F2875602875610075820C1203D1
:1008B00044E52570FC755D01755E0190000075F0E2
:1008C00048744412028E755F32756000756146751A
:1008D0008201120344E52570FC020544AA82AB8321
:1008E000ACF0FDC002C003C004C00590400075F02C
:1008F000D874441214DDAA82AB83ACF0FDE58124E8
:10090000FCF581E4C0E0C0E074B4C0E07443C0E032
:100910008A828B838CF0ED12168DAA82AB83ACF0A9
:10092000FDE58124FCF581755D01755E018A828B90
:10093000838CF0ED12028E755F6475600075610046
:10094000758207120344E52570FC22AA82AB83ACB2
:10095000F0FDC002C003C004C00590600075F06ADD
:1009600074451214DDAA82AB83ACF0FDE58124FC52
:10097000F581E4C0E0C0E074B4C0E07443C0E08A34
:10098000828B838CF0ED12168DAA82AB83ACF0FDC6
:10099000E58124FCF581755D01755E018A828B839A
:1009A0008CF0ED12028E755F327560007561007516
:1009B0008207120344E52570FC22C0E0C0F0C0D0DD
:1009C00075D0000522E522249C5003752200C3E562
:1009D00022952350277402B52502800B7406B52595
:1009E000028004C2008002D20020000B7408B525EA
:1009F000028004C2008002D200200004C2008002F3
:100A0000D200A200B392A0C3E5229523502774011F
:100A1000B52502800B7403B525028004C200800254
:100A2000D20020000B7407B525028004C2008002AA
:100A3000D200200004C2008002D200A200B392A122
:100A4000C3E522952450277402B52502800B740556
:100A5000B525028004C2008002D20020000B74077A
:100A6000B525028004C2008002D200200004C2002A
:100A70008002D200A200B392A2C3E522952450279F
:100A80007401B52502800B7404B525028004C200F0
:100A90008002D20020000B7408B525028004C20039
:100AA0008002D200200004C2008002D200A200B363
:100AB00092A375F00AE52284E5F0701CC3E4952743
:100AC000E464808528F063F08095F0500B74012574
:100AD00027F527E43528F528E5266020C3E5299584
:100AE00027E52A64808528F063F08095F0500DE4B6
:100AF000F527F528F529F52AF525F526E5257004CD
:100B0000F524F523D0D0D0F0D0E032AA82C2D5753A
:100B1000F005EA30E704B2D5F404A430D50AF42491
:100B200001C5F0F43400C5F0FAABF0C28C7C007D56
:100B300000C3EC9AED64808BF063F08095F0501662
:100B40007E907F011EBEFF011FEE4F70F7B2800C3A
:100B5000BC00DE0D80DBD28C22AA82C2D575F005E6
:100B6000EA30E704B2D5F404A430D50AF42401C570
:100B7000F0F43400C5F0FAABF0C28C7C007D00C309
:100B8000EC9AED64808BF063F08095F050167E58FF
:100B90007F021EBEFF011FEE4F70F7B2800CBC003B
:100BA000DE0D80DBD28C22AA82C2D575F005EA3038
:100BB000E704B2D5F404A430D50AF42401C5F0F456
:100BC0003400C5F0F58285F0831216808582688531
:100BD000836985F06AF56B756C00756D00756E48FC
:100BE000756F44C068C069C06AC06B90000075F042
:100BF00048744412168D85827085837185F072F574
:100C000073E58124FCF581C28CE4F566F5678566A1
:100C100082856783121680AC82AD83AAF0FBC06820
:100C2000C069C06AC06B8C828D838AF0EB1214ADF0
:100C3000AA82E58124FCF581EA7003020CD4E4C0A9
:100C4000E0C0E0C0E0C0E0856C82856D83856EF019
:100C5000E56F121438AA82E58124FCF581E4F5746D
:100C6000F575857482857583C002121680AD82ABDE
:100C700083ACF0FEC06CC06DC06EC06F8D828B8384
:100C80008CF0EE1214ADAB82E58124FCF581D0022C
:100C9000EB600DEA600A0574E4B574C6057580C2A0
:100CA000B280C070C071C072C073856C82856D8364
:100CB000856EF0E56F12166485826C85836D85F014
:100CC0006EF56FE58124FCF5810566E4B5660205E5
:100CD00067020C0ED28C22AA82C2D575F005EA30CA
:100CE000E704B2D5F404A430D50AF42401C5F0F425
:100CF0003400C5F0FAABF07C007D00C3EC9AED64E3
:100D0000808BF063F08095F050147EC87F001EBE8B
:100D1000FF011FEE4F70F70CBC00E00D80DD227567
:100D20008214120B0B758205120CD7758214120BEC
:100D30000B758205120CD7758214120B0B75820588
:100D4000020CD7758232120B0B75820A120CD77502
:100D5000825A120B0B758202020CD7E53DB5400298
:100D60008003020E1BC049C04AC04BC04C8559824B
:100D7000855A83855BF0E55C121468AA82E58124BC
:100D8000FCF581EA600C854959854A5A854B5B859B
:100D90004C5CC04DC04EC04FC050855982855A83AF
:100DA000855BF0E55C121468AA82E58124FCF5817C
:100DB000EA600C854959854A5A854B5B854C5CC075
:100DC00051C052C053C054855982855A83855BF007
:100DD000E55C121468AA82E58124FCF581EA600CC6
:100DE000854D59854E5A854F5B85505CC055C05620
:100DF000C057C058855982855A83855BF0E55C12DF
:100E00001468AA82E58124FCF581EA7001228551EB
:100E10005985525A85535B85545C22E53CB54002A6
:100E20008003020EDAC049C04AC04BC04C855982CB
:100E3000855A83855BF0E55C121468AA82E58124FB
:100E4000FCF581EA600C854D59854E5A854F5B85CE
:100E5000505CC04DC04EC04FC050855982855A83EA
:100E6000855BF0E55C121468AA82E58124FCF581BB
:100E7000EA600C85515985525A85535B85545CC094
:100E800051C052C053C054855982855A83855BF046
:100E9000E55C121468AA82E58124FCF581EA600C05
:100EA00085555985565A85575B85585CC055C0563F
:100EB000C057C058855982855A83855BF0E55C121E
:100EC0001468AA82E58124FCF581EA6025855559DC
:100ED00085565A85575B85585C22E53EB5400B9098
:100EE000000075F034744302094BE53FB54003023E
:100EF000067522AA82AB83ACF0FDE4C0E0C0E074CA
:100F0000A0C0E07441C0E08A828B838CF0ED1214A3
:100F1000ADAA82E58124FCF581EA700302102985DF
:100F20007682857783121680AA82AB83ACF0FDC0EF
:100F300002C003C004C005C002C003C004C00585D0
:100F40005982855A83855BF0E55C12159DAE82AFB0
:100F500083A8F0F9E58124FCF581C006C007C00034
:100F6000C0018541828542838543F0E544121438EF
:100F7000AE82E58124FCF581D005D004D003D002F7
:100F8000EE6026755D01755E0190000075F0967447
:100F90004312028E755F4675600075614675820268
:100FA000120344E525606A80FAC002C003C004C091
:100FB00005855982855A83855BF0E55C121664AA23
:100FC00082AB83ACF0FDE58124FCF581C002C00357
:100FD000C004C0058541828542838543F0E5441203
:100FE00014ADAA82E58124FCF581EA6024755D01D7
:100FF000755E0190000075F096744312028E755F65
:1010000046756000756146758201120344E52570DE
:10101000FC747FC0E07400C0E07480C0E012160B66
:10102000158115811581021251C045C046C047C0C7
:10103000488541828542838543F0E544121438AAED
:1010400082E58124FCF581EA607B85768285778361
:10105000C002121680AB82AC83ADF0FEC003C004A8
:10106000C005C006855982855A83855BF0E55C1210
:10107000159DAB82AC83ADF0FEE58124FCF581C00B
:1010800003C004C005C0068541828542838543F0C4
:10109000E544121438AB82E58124FCF581D002EBE3
:1010A0006023755F4675604675610075820B12039B
:1010B00044755D00755E0190000075F096744312F2
:1010C000028E021251EA6077857682857783121646
:1010D00080AA82AB83ACF0FDC002C003C004C0058F
:1010E000855982855A83855BF0E55C121664AA8275
:1010F000AB83ACF0FDE58124FCF581C002C003C0E8
:1011000004C0058541828542838543F0E54412147D
:10111000ADAA82E58124FCF581EA6023755F4675FE
:10112000604675610075820A120344755D00755E44
:101130000190000075F096744312028E021251C0A5
:1011400041C042C043C0448545828546838547F0FF
:10115000E548121438AA82E58124FCF581EA607A18
:10116000857682857783C002121680AB82AC83AD10
:10117000F0FEC003C004C005C006855982855A83AD
:10118000855BF0E55C12159DAB82AC83ADF0FEE5AE
:101190008124FCF581C003C004C005C006854582DA
:1011A0008546838547F0E548121438AB82E58124F3
:1011B000FCF581D002EB6022755F46756046756173
:1011C0000075820C120344755D00755E019000008D
:1011D00075F096744312028E8077EA607485768289
:1011E000857783121680AA82AB83ACF0FDC002C063
:1011F00003C004C005855982855A83855BF0E55C90
:1012000012159DAA82AB83ACF0FDE58124FCF5812B
:10121000C002C003C004C00585458285468385475A
:10122000F0E5481214ADAA82E58124FCF581EA605C
:1012300020755F467560467561007582091203442A
:10124000755D00755E0190000075F09674431202A2
:101250008E752500227499C0E07400C0E07480C0CF
:10126000E012160B158115811581749EC0E0740083
:10127000C0E07480C0E012160B158115811581D273
:101280008C75820012023212142C858241858342B1
:1012900085F043F54475820112023212142C8582C6
:1012A0004585834685F047F548E4F53AF53BC0E0CF
:1012B000C0E0C0E0C0E08541828542838543F0E51F
:1012C00044121438AA82E58124FCF581EA700B905F
:1012D000000012018C120D5B80A7C045C046C047BC
:1012E000C0488541828542838543F0E54412143825
:1012F000AA82E58124FCF581EA6077C045C046C03A
:1013000047C0488541828542838543F0E5441216F3
:1013100064AA82AB83ACF0FDE58124FCF581C002B8
:10132000C003C004C005C041C042C043C04485459D
:10133000828546838547F0E54812159DAE82AF83CE
:10134000A8F0F9E58124FCF581D005D004D003D0C4
:1013500002C006C007C000C0018A828B838CF0EDFA
:1013600012168DAA82AB83ACF0FDE58124FCF581D9
:10137000806DC041C042C043C044854582854683DC
:101380008547F0E54812166485827885837985F073
:101390007AF57BE58124FCF581C041C042C043C0A1
:1013A000448545828546838547F0E54812159DAE04
:1013B00082AF83A8F0F9E58124FCF581C006C0075F
:1013C000C000C001857882857983857AF0E57B123B
:1013D000168DAA82AB83ACF0FDE58124FCF581C0BB
:1013E00002C003C004C005C041C042C043C0449015
:1013F000D70A75F023743D12168DAE82AF83A8F024
:10140000F9E58124FCF5818E828F8388F0E912143E
:1014100079858276858377D005D004D003D0028A7F
:10142000828B838CF0ED120EF3021281E4AC83AB5D
:1014300082FAF9748E0217DEFFA8811818121806B6
:10144000D2D133E6400730E70B7582012220E70650
:1014500075820022C2D11217E8E97003F5822230AA
:10146000D101B3E433F58222FFA8811818121806BF
:101470001217E8E96401F58222121831700AE58238
:10148000458345F0700122E430D112F4700BE5F091
:10149000F47006E58330E7012290800022700AE5AF
:1014A000F07006E58320E70122907FFF22FFA881EC
:1014B0001818121806D2D133E6400730E70B7582B0
:1014C000002220E70675820122C2D11217E8E970D6
:1014D00003F5822220D101B3E433F5822212190EE2
:1014E000BC00030218ADEF60FA30D502B2D1E5833B
:1014F000B4FF030218C3E582B4FF030218C32583B7
:1015000040072482400B0218AD24831450030218B4
:10151000C3F582EA8DF0A4A8F0EA8EF0A428F8E4DE
:1015200035F0F9EB8DF0A428E935F0F9E433CA8FF2
:10153000F0A429F9EA35F0FAEBF88EF0A429F9EADB
:1015400035F0FAE433FBEC8DF0A429F9EA35F0FA32
:10155000E43BFBE88FF0A42AFAEB35F0FBE433CC54
:10156000FD8EF0A42AFAEB35F0FBE43CFCED8FF0A5
:10157000A42BFBEC35F0FC20E7031218DB02188CDF
:10158000E582857CF0A4C582C0F0857DF0A4D0F012
:1015900025F0C583857CF0A42583F5832212190EDE
:1015A0007900E583B58202800D500312193CE58372
:1015B000C39582121956E5D0C465D020E117EA2DF3
:1015C000FAEB3EFBEC3FFC50097401121956EC4457
:1015D00080FC02188CC3EA9DFAEB9EFBEC9FFC504A
:1015E0000FC3E499F9E49AFAE49BFBE49CFCB2D1C2
:1015F0001218DB02188C021FB985821885831985A1
:10160000F01A85091B9015F6021A22C00885810878
:10161000E50824FBF51BE50824FBF8861808861965
:1016200008861A9015F6121A22D00822C2D5E58330
:1016300030E70DD2D5E4C39582F582E49583F58336
:10164000E57D30E70DB2D5E4C3957CF57CE4957D6E
:10165000F57D1217AC30D50BE4C39582F582E49585
:1016600083F58322A8811818C6B2E7C602159DAA81
:1016700082AB838B048CCB8ACA75C834759852228E
:10168000AC83AB827A007900748E021FD712190ED8
:1016900030D502B2D1BF0009BC00030218D0021835
:1016A000C3BC00030218ADE583B4FF0BE582B4FFB1
:1016B000030218D00218ADE582B4FF030218C3C3B9
:1016C00095835007247F400B0218AD2480145003EB
:1016D0000218C3C0E0E4CCCBCAF98D7C8E7D8F7E2E
:1016E000EF54F0C4F57F758306857FF0EB84F582B7
:1016F000E9C4F9EAC4FAEBC4FBEC540FC47803D68E
:10170000FC18EBD6FB18EAD6FA8582F0EDA4A8F017
:10171000FD8582F0EEA428FEE435F0F88582F0EF36
:10172000A428FFE435F0F8E99DF9EA9EFAEB9FFB67
:10173000EC98FCAD7CAE7DAF7E30E7101582E92DD4
:10174000F9EA3EFAEB3FFBE43CFC80EDC082D58336
:1017500098C3E933F9EA33FAEB33FBEC33FCC3E922
:101760009DEA9EEB9FEC9400B3E413F9D002D0E025
:10177000C44AFAD003D0E0C44BFBD004D0E0F5F06B
:10178000540FC44CFCD082158230F40FD3EC13FC00
:10179000EB13FBEA13FAE913F90582E930E70A745F
:1017A000012AFAE43BFBE43CFC0218A47A10E4FBB7
:1017B000FCE58225E0F582E58333F583EB33FBEC32
:1017C00033FCEB957CF5F0EC957D4006FCABF043EB
:1017D0008201DADD22FCABF0AA83A982749EC2D119
:1017E000F5821218DB02188C7901AA82E68F82B585
:1017F000821318E6B5F00E18E6B5830918E68A825A
:10180000B58202790022B4800FE5F0700AE583709A
:1018100006E58270027F00EFB6801518B60010183A
:10182000B6000B18B600060808087600220808085B
:1018300022121FFBC3749E958240397900121956FB
:1018400030D126E9F42401F582EAF43400F583EB83
:10185000F43400F5F0ECF43400700AE58245834579
:10186000F0700122E430E70F22EC20E71489828A2D
:10187000838BF02230D10AE4F582F583F5F0748091
:101880002274FFF582F583F5F0747F22B98003EAB4
:1018900013B34010EA2401FAE43BFBE43CFC50049F
:1018A0007C800582BC000EBB000BBA0008E4F5F09A
:1018B000F583F58222A2D1E582138CF092F78B8317
:1018C0008A8222E4F583F58275F080F4A2D1132296
:1018D000E4F583F58275F0C0747F227804EC701112
:1018E000E58224F8500AF582E4C9CACBFCD8EF227D
:1018F000EC7820058220E713D5820122C3E933F971
:10190000EA33FAEB33FBEC33FCD8EA158222AA82E5
:10191000AB83A2F73392D16002D2F7F582ACF0E547
:101920008124F9F8E6FD08E6FE0886F008E6A2F74D
:101930003392D56002D2F7F583AFF022E582C583FA
:10194000F582A2D133A2D592D11392D5ECCFFCEB84
:10195000CEFBEACDFA226040F82582500274FFF5F2
:1019600082E824F8501ECCCBCAF9E4CC24F85014F9
:10197000CBCAF9E4CB24F8500BCAF9E4CA24F850D6
:101980000379002224086010F8C3EC13FCEB13FB6E
:10199000EA13FAE913F9D8F122AA8274AAC0E07412
:1019A00019C0E0C00AC00B8A82220511E4B51102F9
:1019B000051222AA8274302AFA24C6500A74072A11
:1019C000FA3001034302208A82021999E582FAC49F
:1019D000540FF582C0021219B3D002740F5AF58267
:1019E0000219B3AA0CAB0DAC0EAD0FAE10751720DB
:1019F000EE2EFEED235401FF4206EA2AFAEB33FBFA
:101A0000EC33FCED33FDC3EE95134008EEC39513A4
:101A1000FE430201D517D98A0C8B0D8C0E8D0F8ECB
:101A2000102285820A85830BE4F511F512AA18AB02
:101A300019AC1A8A828B838CF012200DFD74012A56
:101A4000F518E43BF5198C1AEDFA7003021FB2BACF
:101A500025028003021FAAC205C206C207C208C22D
:101A600009C20AC20BC20CC202C203C2047513002F
:101A70007514007515FFAB18AC19AD1A8B828C83E9
:101A80008DF012200DFAA3AB82AC838B188C198DCC
:101A90001ABA25078A8212199980928A06BE3000E6
:101AA000402E8A06EE24C6402774FFB51513E514B0
:101AB00075F00AA4FEEA24D02EF51470BFD2068079
:101AC000BBE51575F00AA4FEEA24D02EF51580AC0E
:101AD000BA2E0A74FFB515A4751500809F8A06BE3C
:101AE0006100400E8A06EE248540075302DFD201D2
:101AF0008002C201BA20028075BA2303021B7DBA9C
:101B00002A03021B82BA2B02805FBA2D028055BACB
:101B10004202805FBA4303021BC7BA4403021D029C
:101B2000BA4503021D1CBA4603021D18BA47030238
:101B30001D20BA4903021D02BA4C02803BBA4E0373
:101B4000021D24BA4F03021D09BA5003021C9BBA9E
:101B50005303021BEBBA5503021D0EBA5803021DB4
:101B600013021D4ED205021A7CD207021A7CD2083B
:101B7000021A7CD20A021A7CD20B021A7CD20C0204
:101B80001A7C74FFB51520300A0BE51B14F8881B6E
:101B90008614021A7CE51B24FEF8881B860608863C
:101BA00007188E14021A7C300A0BE51B14F8881BE8
:101BB0008615021A7CE51B24FEF8881B860608861B
:101BC00007188E15021A7C300A0AE51B14F8881BC8
:101BD0008602800FE51B24FEF8881B860308860416
:101BE000188B028A82121999021D53E51B24FDF8F5
:101BF000881B860308860408860518188B0C8C0D34
:101C00008D0E8B828C838DF0122042AB82AC838B45
:101C10001674FFB5150385161520051DC3E5169529
:101C2000145016E514C39516F514AB141514EB6097
:101C30000875822012199980F1850C82850D8385A3
:101C40000EF012200DFBFA6029AB151515C3E464E4
:101C5000808BF063F08095F050188A82121999AB4E
:101C60000CAC0DAD0E0BBB00010C8B0C8C0D8D0E56
:101C700080C7200503021D53C3E5169514400302D7
:101C80001D53E514C39516F514AB141514EB70032E
:101C9000021D5375822012199980EEE51B24FDF870
:101CA000881B860308860408860518188B0C8C0D83
:101CB0008D0EE50EFB30E7047A438013EB54606031
:101CC000047A50800AEB30E6047A4980027A588A16
:101CD00082C00212199975823A12199975823012CE
:101CE0001999758278121999D002BA4902800BBAF3
:101CF00050028006850D821219CC850C821219CCF7
:101D00008051D20975130A804A75130880457513EE
:101D10000A8040751310803BD2028037D203803393
:101D2000D204802FE51B24FDF8881B860308860457
:101D300008860518188B0C8C0D8D0E8B828C838D6C
:101D4000F0E511122029A3E51212202980058A82CC
:101D500012199920020620030330045AE51B24FCC3
:101D6000F8881B8603088604088605088606181866
:101D7000188B0C8C0D8D0E8E0F750CC2750D0075A9
:101D80000E80850C1C850D1D850E1E7401251CFE04
:101D9000E4351DFFAB1E8E0C8F0D8B0E851C8285CE
:101DA0001D83851EF012200DFBFA7003021A2D8A86
:101DB0008212199980CCE5137003021A2D7B8530AD
:101DC0000A2BE51B14F8881BE6FC3395E0FDFEFFAB
:101DD0008C0C8D0D8E0E8F0F20095EAC0C7D007E5D
:101DE000007F008C0C8D0D8E0E8F0F804C300B1FE2
:101DF000E51B24FCF8881B8604088605088606086F
:101E000086071818188C0C8D0D8E0E8F0F802AE502
:101E10001B24FEF8881B860408860518ED3395E020
:101E2000FEFF8C0C8D0D8E0E8F0F20090CAC0CADAF
:101E30000D7E007F008E0E8F0F300C43E50C450D9C
:101E4000450E450F60397408B5130C758230C00318
:101E5000121999D00380287410B51323758230C0ED
:101E600003121999D00330010C758278C00312193E
:101E700099D003800A758258C003121999D0033093
:101E80000925AC0CAD0DAE0EE50FFF30E717C3E42E
:101E90009CFCE49DFDE49EFEE49FFF8C0C8D0D8E6A
:101EA0000E8F0F8002C209751600D20D8B007510BF
:101EB00000C0001219E3D000200D0DE510C4FCE6AF
:101EC000FD4CF61888038002A6100516B20DE50C2D
:101ED000450D450E450F70D68803E5147003751443
:101EE0000120061A200517E51604FCC39514500EB0
:101EF000758220C003121999D003151480E93009A6
:101F00000E75822DC003121999D00315148024E593
:101F100016602030070E75822BC003121999D0036A
:101F20001514800F30080C758220C003121999D047
:101F300003151420051EAC141514C3E5169C502778
:101F40003006047C3080027C208C82C003121999F8
:101F5000D00380E2C3E51695145009E514C3951625
:101F6000F51480037514008B00AB161516EB602278
:101F7000B20D200D0A08E6C4540FFB8B10800786B3
:101F800003740F5BF510851082C0001219B3D000E6
:101F900080D7200503021A2DAB141514EB70030231
:101FA0001A2D75822012199980EE8A8212199902CF
:101FB0001A2D85118285128322AA82BA0A081099E5
:101FC0000280FB75990D10990280FB8A9922FCAB67
:101FD000F0AA83A982749EF582C2D1EC30E716D2B2
:101FE000D1E9F42401F9EAF43400FAEBF43400FB0B
:101FF000ECF43400FC1218DB02188CAA82AB83A22A
:10200000F73392D16002D2F7F582ACF02220F714B8
:1020100030F6148883A88220F507E6A8837583002C
:1020200022E280F7E49322E02220F71030F61188B4
:1020300083A88220F507F6A88375830022F280F733
:10204000F022AA82AB83ACF07D007E008A828B8373
:102050008CF012200DFFA3AA82AB83EF60070DBDA9
:1020600000EA0E80E78D828E8322000000000000CF
:00000001FF
