:1000000002000E00000000000000000209A075813F
:100010008312010CE582600302007A780079007A8D
:10002000007B007C007D00EC4D601C88828983E4AD
:1000300093A3A882A9838A828B83F0A3AA82AB832D
:100040001CBCFFE31D80E07582007583007C007D91
:1000500000EC4D600AE4F0A31CBCFFF51D80F275B6
:1000600082007583007C007D00EC4D600AE4F0A303
:100070001CBCFFF51D80F21200B31211EB80FE1BB9
:100080005B324A0050726F6A6563742032204D6F94
:10009000746F7220436F6E74726F6C2052756E6E47
:1000A000696E672E2E2E0A003C4E4F20464C4F4163
:1000B000543E00752500752600E4F527F528E4F583
:1000C00029F52A753C02753D01753E03753F04759F
:1000D000493D754A0A754BD7754C3E754DC3754EF3
:1000E000F5754F4875503F75518F7552C27553F570
:1000F00075543F7555CD7556CC75574C7558407530
:10010000598F755AC2755BF5755C3F2275E60075AF
:10011000E70075D60075D70075CE0075CF0075C69F
:100120000075C700758E1175BE0075BF0090FFFA8F
:10013000121608438780759852759B00759AFA7558
:100140009B1EC28CC28E75891175F4FF758CFF756C
:10015000F248758A4875F598758D9875F300758B1A
:1001600000C28CC28ED2A9C2ABD2AF7522007582FA
:100170000022AA82AB837C00C002C003C00412012B
:10018000FAD004D003D0027D00BD0800505475821F
:1001900000C002C003C004C005120218AE82AF83C3
:1001A000D005D004D003D002C3EA9EEB64808FF068
:1001B00063F08095F050108DF005F07401800225F9
:1001C000E0D5F0FBFE80027E00EE4204C002C003D8
:1001D000C004C0051201ECD005D004D003D0020D3C
:1001E00080A7C0041201FAD0048C82227A14791EEE
:1001F0007816D8FED9FADAF622227A1E791E7816F7
:10020000D8FED9FADAF62222AA8253C47F8AC574AC
:100210008055C4FABA80F822AA8253C3BF75C33F7F
:1002200043C340C29474184AF5821202087A0A7BCA
:10023000001ABAFF011BEA4B70F7758255120208CB
:10024000743F55C5FB7A00758255C002C003120287
:1002500008D003D002D29474F055C5FC7D00EC2A7E
:10026000FAED3BC4CAC4540F6ACA540FCA6ACA8A98
:1002700082F58322AA82AB83ACF0FDE55E6020C0EC
:1002800002C003C004C00590B9D975F0B3743F1221
:100290001476AA82AB83ACF0FDE58124FCF581E500
:1002A0005D7058752701E4F528852782852883C06D
:1002B00002C003C004C005121619AE82AF83A8F0B5
:1002C000F9D005D004D003D002C002C003C004C0DE
:1002D00005C002C003C004C0058E828F8388F0E988
:1002E000121446AE82E58124FCF581D005D004D0FD
:1002F00003D002EE70B3F527F52822752601EA4BEC
:100300004C8DF0C2F745F0600280087A007B007CDB
:10031000207D418A828B838CF0ED12141285822914
:1003200085832A752701E4F52822AA82E561FB333B
:1003300095E0FC7465C39BFBE49CFCC374E485609E
:10034000F063F08095F05003756064C374E4855FDA
:10035000F063F08095F05003755F64C374E48561C9
:10036000F063F08095F05003756164C374888AF07F
:1003700063F08095F0500302042EEA30E703020494
:100380002EE56160577D00C3ED6480948A5053ED83
:10039000242BF8EDFE3395E0FF8E828F83A3A3A379
:1003A000A3A3E55FF57A3395E0F57BC002C003C0F7
:1003B00004C005C000121519AE82AF83757A0EE431
:1003C000F57B8E828F831215C5AE82AF83D000D0AD
:1003D00005D004D003D002A6060D80ABAD5F8D24FE
:1003E0008D238A25E52745286006752701E4F52831
:1003F000E5617001227D00C3ED6480948A40012292
:10040000E5274528700122ED242BF886068E248EE0
:10041000238B7A8C7B852782852883C003C00412B6
:1004200015C5AE82AF83D004D0038E0580C9BA094A
:100430003B752501855F23E560FB3395E0FC746423
:10044000C39BF57AE49CF57BE55FFB3395E0FC8B81
:10045000828C83121519AB82AC83757A64E4F57BC8
:100460008B828C831215C5AB828B2422BA0A3B7512
:100470002501E560FB3395E0FC7464C39BF57AE4E9
:100480009CF57BE55FFB3395E0FC8B828C8312153A
:1004900019AB82AC83757A64E4F57B8B828C831212
:1004A00015C5AB828B23855F2422BA0B3B752502D1
:1004B000855F23E560FB3395E0FC7464C39BF57AAC
:1004C000E49CF57BE55FFB3395E0FC8B828C83122B
:1004D0001519AB82AC83757A64E4F57B8B828C83CF
:1004E0001215C5AB828B2422BA0C3B752502E56040
:1004F000FA3395E0FB7464C39AF57AE49BF57BE5E7
:100500005FFA3395E0FB8A828B83121519AA82ABBE
:1005100083757A64E4F57B8A828B831215C5AA827F
:100520008A23855F242275250022755F2875600067
:1005300075610075820112032A755D00755E019078
:10054000000075F0C87442120274755F1E75600079
:1005500075610075820112032A755D00755E019058
:10056000000075F0C87442120274755F0F75600068
:1005700075610075820112032A755D00755E019038
:10058000000075F0C8744212027475250022E582DD
:10059000FA603BE56245636035856282856383125C
:1005A0001619AA82AB83ACF0FD755D01755E018AF8
:1005B000828B838CF0ED120274755F32756000756A
:1005C000614675820112032AE525603B80FAE562E7
:1005D00045636033856282856383121619AA82ABF4
:1005E00083ACF0FD755D01755E018A828B838CF0B2
:1005F000ED120274755F3275600075614675820296
:1006000012032AE52570FC755D01755E0190C0003E
:1006100075F0B77444120274755F4B75604675616E
:100620000075820A12032AE52570FC755F28F560C3
:10063000F56175820112032A85648285658312162D
:1006400019AA82AB83ACF0FD755D00755E018A82EC
:100650008B838CF0ED12027402052A755D01755EC4
:100660000190800075F0897444120274755F2875DA
:10067000600075615075820212032AE52570FC75D1
:100680005D01755E0190000075F0487443120274BC
:10069000755F2875602875610075820B12032AE565
:1006A0002570FC755D01755E0190000075F0C874E1
:1006B00042120274755F2875603275610075820B95
:1006C00012032AE52570FC755D01755E019000003E
:1006D00075F0487443120274755F28756037756150
:1006E0000075820B12032AE52570FC755D01755EAD
:1006F0000190000075F0487443120274755F28750C
:10070000604175610075820B12032AE52570FC7546
:100710005D01755E0190000075F0B97443120274BA
:10072000755F2875604675610075820B12032AE5B6
:100730002570FC755D01755E0190000075F0167402
:1007400043120274755F2875604175610075820BF4
:1007500012032AE52570FC755D01755E01900000AD
:1007600075F0167443120274755F287560377561F1
:100770000075820B12032AE52570FC755D01755E1C
:100780000190000075F0C87442120274755F2875FC
:10079000603275610075820B12032AE52570FC75C5
:1007A0005D01755E0190000075F0C874421202741C
:1007B000755F2875602875610075820B12032AE544
:1007C0002570FC755D01755E0190000075F09674F2
:1007D00044120274755F28756000756100758202AD
:1007E00012032AE52570FC755D01755E019000001D
:1007F00075F07A7443120274755F2875602875610C
:100800000075820C12032AE52570FC755D01755E8A
:100810000190000075F0967443120274755F28759C
:10082000603C75610075820C12032AE52570FC7529
:100830005D01755E0190800075F00E7444120274C3
:10084000755F2875605075610075820C12032AE58A
:100850002570FC755D01755E0190000075F07A747D
:1008600043120274755F2875603775610075820CDC
:1008700012032AE52570FC755D01755E019000008C
:1008800075F0C87442120274755F2875602875612E
:100890000075820C12032AE52570FC755D01755EFA
:1008A0000190000075F0487444120274755F32754F
:1008B000600075614675820112032AE52570FC020D
:1008C000052AAA82AB83ACF0FDC002C003C004C0FD
:1008D0000590400075F0D87444121476AA82AB8358
:1008E000ACF0FDE58124FCF581E4C0E0C0E074B427
:1008F000C0E07443C0E08A828B838CF0ED12162630
:10090000AA82AB83ACF0FDE58124FCF581755D0125
:10091000755E018A828B838CF0ED120274755F64C0
:1009200075600075610075820712032AE52570FC69
:1009300022AA82AB83ACF0FDC002C003C004C00594
:1009400090600075F06A7445121476AA82AB83AC8D
:10095000F0FDE58124FCF581E4C0E0C0E074B4C0A2
:10096000E07443C0E08A828B838CF0ED121626AAD5
:1009700082AB83ACF0FDE58124FCF581755D0175EA
:100980005E018A828B838CF0ED120274755F327582
:10099000600075610075820712032AE52570FC224C
:1009A000C0E0C0F0C0D075D0000522E522249C50E4
:1009B00003752200C3E522952350277402B5250252
:1009C000800B7406B525028004C2008002D200208C
:1009D000000B7408B525028004C2008002D20020FA
:1009E0000004C2008002D200A200B392A0C3E5229C
:1009F000952350277401B52502800B7403B5250299
:100A00008004C2008002D20020000B7407B52502CA
:100A10008004C2008002D200200004C2008002D202
:100A200000A200B392A1C3E522952450277402B519
:100A30002502800B7405B525028004C2008002D215
:100A40000020000B7407B525028004C2008002D28A
:100A500000200004C2008002D200A200B392A2C310
:100A6000E522952450277401B52502800B7404B546
:100A700025028004C2008002D20020000B7408B559
:100A800025028004C2008002D200200004C200803F
:100A900002D200A200B392A375F00AE52284E5F029
:100AA000701CC3E49527E464808528F063F080958A
:100AB000F0500B74012527F527E43528F528E526A5
:100AC0006020C3E5299527E52A64808528F063F036
:100AD0008095F0500DE4F527F528F529F52AF52540
:100AE000F526E5257004F524F523D0D0D0F0D0E02C
:100AF00032AA82C2D575F005EA30E704B2D5F40413
:100B0000A430D50AF42401C5F0F43400C5F0FAABE2
:100B1000F0C28C7C007D00C3EC9AED64808BF063A6
:100B2000F08095F050167E907F011EBEFF011FEEF3
:100B30004F70F7B2800CBC00DE0D80DBD28C22AA95
:100B400082C2D575F005EA30E704B2D5F404A430CA
:100B5000D50AF42401C5F0F43400C5F0FAABF0C2B4
:100B60008C7C007D00C3EC9AED64808BF063F08098
:100B700095F050167E587F021EBEFF011FEE4F708B
:100B8000F7B2800CBC00DE0D80DBD28C22AA82C2C0
:100B9000D575F005EA30E704B2D5F404A430D50ADF
:100BA000F42401C5F0F43400C5F0F58285F0831219
:100BB000161985826885836985F06AF56B756C0006
:100BC000756D00756E48756F44C068C069C06AC0B5
:100BD0006B90000075F0487444121626858270856B
:100BE000837185F072F573E58124FCF581C28CE494
:100BF000F566F567856682856783121619AC82AD46
:100C000083AAF0FBC068C069C06AC06B8C828D8308
:100C10008AF0EB121446AA82E58124FCF581EA7081
:100C200003020CBAE4C0E0C0E0C0E0C0E0856C8222
:100C3000856D83856EF0E56F1213D1AA82E581245C
:100C4000FCF581E4F574F575857482857583C002C1
:100C5000121619AD82AB83ACF0FEC06CC06DC06ED5
:100C6000C06F8D828B838CF0EE121446AB82E581CF
:100C700024FCF581D002EB600DEA600A0574E4B54E
:100C800074C6057580C2B280C070C071C072C07376
:100C9000856C82856D83856EF0E56F1215FD85820A
:100CA0006C85836D85F06EF56FE58124FCF581051B
:100CB00066E4B566020567020BF4D28C22AA82C2F2
:100CC000D575F005EA30E704B2D5F404A430D50AAE
:100CD000F42401C5F0F43400C5F0FAABF07C007DDB
:100CE00000C3EC9AED64808BF063F08095F05014B3
:100CF0007EC87F001EBEFF011FEE4F70F70CBC00C8
:100D0000E00D80DD22758214120AF1758205120C45
:100D1000BD758214120AF1758205120CBD7582141C
:100D2000120AF1758205020CBD758232120AF17544
:100D3000820A120CBD75825A120AF1758202020CE7
:100D4000BDE53DB540028003020E01C049C04AC066
:100D50004BC04C855982855A83855BF0E55C121443
:100D600001AA82E58124FCF581EA600C8549598558
:100D70004A5A854B5B854C5CC04DC04EC04FC0503D
:100D8000855982855A83855BF0E55C121401AA823D
:100D9000E58124FCF581EA600C854959854A5A852C
:100DA0004B5B854C5CC051C052C053C054855982C6
:100DB000855A83855BF0E55C121401AA82E58124E3
:100DC000FCF581EA600C854D59854E5A854F5B854F
:100DD000505CC055C056C057C058855982855A834B
:100DE000855BF0E55C121401AA82E58124FCF581A3
:100DF000EA70012285515985525A85535B85545CAE
:100E000022E53CB540028003020EC0C049C04AC082
:100E10004BC04C855982855A83855BF0E55C121482
:100E200001AA82E58124FCF581EA600C854D598593
:100E30004E5A854F5B85505CC04DC04EC04FC05070
:100E4000855982855A83855BF0E55C121401AA827C
:100E5000E58124FCF581EA600C85515985525A855B
:100E6000535B85545CC051C052C053C054855982F5
:100E7000855A83855BF0E55C121401AA82E5812422
:100E8000FCF581EA600C85555985565A85575B8576
:100E9000585CC055C056C057C058855982855A8382
:100EA000855BF0E55C121401AA82E58124FCF581E2
:100EB000EA602585555985565A85575B85585C22C9
:100EC000E53EB5400B90000075F0347443020931E3
:100ED000E53FB5400302065B22AA82AB83ACF0FD7E
:100EE000E4C0E0C0E074A0C0E07441C0E08A828B3E
:100EF000838CF0ED121446AA82E58124FCF581EA88
:100F00007003020FEA740AC0E074D7C0E07423C013
:100F1000E0743DC0E0855982855A83855BF0E55CCD
:100F2000121536AA82AB83ACF0FDE58124FCF58175
:100F3000C002C003C004C005854182854283854349
:100F4000F0E5441213D1AA82E58124FCF581EA6020
:100F500027755D01755E0190000075F0967443126F
:100F60000274755F467560007561467582021203F2
:100F70002AE52570012280F9740AC0E074D7C0E028
:100F80007423C0E0743DC0E0855982855A83855B37
:100F9000F0E55C1215FDAA82AB83ACF0FDE581247F
:100FA000FCF581C002C003C004C0058541828542B2
:100FB000838543F0E544121446AA82E58124FCF5BA
:100FC00081EA700122755D01755E0190000075F087
:100FD000967443120274755F4675600075614675BC
:100FE000820112032AE52570FC22C045C046C04795
:100FF000C0488541828542838543F0E5441213D180
:10100000AA82E58124FCF581EA6070C002740AC0FE
:10101000E074D7C0E07423C0E0743DC0E08559821D
:10102000855A83855BF0E55C121536AB82AC83ADE7
:10103000F0FEE58124FCF581C003C004C005C006B4
:101040008541828542838543F0E5441213D1AB820A
:10105000E58124FCF581D002EB6020755F46756068
:101060004675610075820B12032A755D00755E017D
:1010700090000075F0967443020274EA606C740A82
:10108000C0E074D7C0E07423C0E0743DC0E085596F
:1010900082855A83855BF0E55C1215FDAA82AB83DD
:1010A000ACF0FDE58124FCF581C002C003C004C0A2
:1010B000058541828542838543F0E544121446AAA2
:1010C00082E58124FCF581EA6020755F4675604603
:1010D00075610075820A12032A755D00755E0190C4
:1010E000000075F0967443020274C041C042C043D0
:1010F000C0448545828546838547F0E5481213D173
:10110000AA82E58124FCF581EA6070C002740AC0FD
:10111000E074D7C0E07423C0E0743DC0E08559821C
:10112000855A83855BF0E55C121536AB82AC83ADE6
:10113000F0FEE58124FCF581C003C004C005C006B3
:101140008545828546838547F0E5481213D1AB82F9
:10115000E58124FCF581D002EB6020755F46756067
:101160004675610075820C12032A755D00755E017B
:1011700090000075F0967443020274EA606C740A81
:10118000C0E074D7C0E07423C0E0743DC0E085596E
:1011900082855A83855BF0E55C121536AA82AB83A3
:1011A000ACF0FDE58124FCF581C002C003C004C0A1
:1011B000058545828546838547F0E548121446AA91
:1011C00082E58124FCF581EA6020755F4675604602
:1011D00075610075820912032A755D00755E0190C4
:1011E000000075F096744302027422747FC0E074AC
:1011F00000C0E07480C0E01215A41581158115812E
:101200007484C0E07400C0E07480C0E01215A415BE
:101210008115811581D28CD28E758200120218122E
:1012200013C585824185834285F043F5447582016B
:101230001202181213C585824585834685F047F54D
:1012400048E4F53AF53BC0E0C0E0C0E0C0E08541CD
:10125000828542838543F0E5441213D1AA82E58159
:1012600024FCF581EA7009900000120172120D4110
:10127000C045C046C047C0488541828542838543FA
:10128000F0E5441213D1AA82E58124FCF581EA60DD
:1012900077C045C046C047C04885418285428385A6
:1012A00043F0E5441215FDAA82AB83ACF0FDE58165
:1012B00024FCF581C002C003C004C005C041C04287
:1012C000C043C0448545828546838547F0E5481282
:1012D0001536AE82AF83A8F0F9E58124FCF581D004
:1012E00005D004D003D002C006C007C000C0018AE8
:1012F000828B838CF0ED121626AA82AB83ACF0FDB4
:10130000E58124FCF581806DC041C042C043C044EA
:101310008545828546838547F0E5481215FD85821F
:101320007685837785F078F579E58124FCF581C0B1
:1013300041C042C043C0448545828546838547F00D
:10134000E548121536AE82AF83A8F0F9E58124FC9A
:10135000F581C006C007C000C0018576828577830D
:101360008578F0E579121626AA82AB83ACF0FDE50C
:101370008124FCF5818A828B838CF0ED120ED97565
:101380005D00755E0090800075F0BB7444120274BD
:1013900090000075F0347443120931120D05755D2B
:1013A00000755E0090000075F09674431202749010
:1013B000000075F03474431208C2120D297582645E
:1013C000120B8D80FEE4AC83AB82FAF9748E0217A7
:1013D00077FFA881181812179FD2D133E640073043
:1013E000E70B7582012220E70675820022C2D11226
:1013F0001781E97003F5822230D101B3E433F5821D
:1014000022FFA881181812179F121781E96401F5AD
:1014100082221217CA700AE582458345F0700122C4
:10142000E430D112F4700BE5F0F47006E58330E798
:10143000012290800022700AE5F07006E58320E723
:101440000122907FFF22FFA881181812179FD2D186
:1014500033E6400730E70B7582002220E7067582ED
:101460000122C2D1121781E97003F5822220D10135
:10147000B3E433F582221218A7BC0003021846EF2A
:1014800060FA30D502B2D1E583B4FF0302185CE5FF
:1014900082B4FF0302185C258340072482400B02BC
:1014A0001846248314500302185CF582EA8DF0A4D8
:1014B000A8F0EA8EF0A428F8E435F0F9EB8DF0A45A
:1014C00028E935F0F9E433CA8FF0A429F9EA35F0B8
:1014D000FAEBF88EF0A429F9EA35F0FAE433FBECE4
:1014E0008DF0A429F9EA35F0FAE43BFBE88FF0A48B
:1014F0002AFAEB35F0FBE433CCFD8EF0A42AFAEBAC
:1015000035F0FBE43CFCED8FF0A42BFBEC35F0FC5C
:1015100020E703121874021825E582857AF0A4C525
:1015200082C0F0857BF0A4D0F025F0C583857AF0E9
:10153000A42583F583221218A77900E583B58202DA
:10154000800D50031218D5E583C395821218EFE57C
:10155000D0C465D020E117EA2DFAEB3EFBEC3FFC4E
:10156000500974011218EFEC4480FC021825C3EAFC
:101570009DFAEB9EFBEC9FFC500FC3E499F9E49AB3
:10158000FAE49BFBE49CFCB2D11218740218250209
:101590001F5285821885831985F01A85091B9015BD
:1015A0008F0219BBC008858108E50824FBF51BE5FF
:1015B0000824FBF8861808861908861A90158F12D9
:1015C00019BBD00822C2D5E58330E70DD2D5E4C3DC
:1015D0009582F582E49583F583E57B30E70DB2D5FE
:1015E000E4C3957AF57AE4957BF57B12174530D5FF
:1015F0000BE4C39582F582E49583F58322A88118D4
:1016000018C6B2E7C6021536AA82AB838B048CCB10
:101610008ACA75C83475985222AC83AB827A007935
:1016200000748E021F701218A730D502B2D1BF000D
:1016300009BC000302186902185CBC0003021846CA
:10164000E583B4FF0BE582B4FF0302186902184674
:10165000E582B4FF0302185CC395835007247F40E2
:101660000B021846248014500302185CC0E0E4CC3E
:10167000CBCAF98D7A8E7B8F7CEF54F0C4F57D75E3
:101680008306857DF0EB84F582E9C4F9EAC4FAEBC0
:10169000C4FBEC540FC47803D6FC18EBD6FB18EA55
:1016A000D6FA8582F0EDA4A8F0FD8582F0EEA4289C
:1016B000FEE435F0F88582F0EFA428FFE435F0F879
:1016C000E99DF9EA9EFAEB9FFBEC98FCAD7AAE7BC4
:1016D000AF7C30E7101582E92DF9EA3EFAEB3FFBCB
:1016E000E43CFC80EDC082D58398C3E933F9EA334A
:1016F000FAEB33FBEC33FCC3E99DEA9EEB9FEC94E1
:1017000000B3E413F9D002D0E0C44AFAD003D0E029
:10171000C44BFBD004D0E0F5F0540FC44CFCD08295
:10172000158230F40FD3EC13FCEB13FBEA13FAE948
:1017300013F90582E930E70A74012AFAE43BFBE475
:101740003CFC02183D7A10E4FBFCE58225E0F582C2
:10175000E58333F583EB33FBEC33FCEB957AF5F063
:10176000EC957B4006FCABF0438201DADD22FCAB5A
:10177000F0AA83A982749EC2D1F58212187402184D
:10178000257901AA82E68F82B5821318E6B5F00E9C
:1017900018E6B5830918E68A82B58202790022B478
:1017A000800FE5F0700AE5837006E58270027F0025
:1017B000EFB6801518B6001018B6000B18B6000664
:1017C00008080876002208080822121F94C3749E95
:1017D0009582403979001218EF30D126E9F42401BE
:1017E000F582EAF43400F583EBF43400F5F0ECF420
:1017F0003400700AE582458345F0700122E430E749
:101800000F22EC20E71489828A838BF02230D10AE0
:10181000E4F582F583F5F074802274FFF582F58398
:10182000F5F0747F22B98003EA13B34010EA240173
:10183000FAE43BFBE43CFC50047C800582BC000ED7
:10184000BB000BBA0008E4F5F0F583F58222A2D1C3
:10185000E582138CF092F78B838A8222E4F583F57C
:101860008275F080F4A2D11322E4F583F58275F03D
:10187000C0747F227804EC7011E58224F8500AF5D8
:1018800082E4C9CACBFCD8EF22EC7820058220E79D
:1018900013D5820122C3E933F9EA33FAEB33FBECC7
:1018A00033FCD8EA158222AA82AB83A2F73392D105
:1018B0006002D2F7F582ACF0E58124F9F8E6FD0884
:1018C000E6FE0886F008E6A2F73392D56002D2F76A
:1018D000F583AFF022E582C583F582A2D133A2D58C
:1018E00092D11392D5ECCFFCEBCEFBEACDFA22607D
:1018F00040F82582500274FFF582E824F8501ECC8F
:10190000CBCAF9E4CC24F85014CBCAF9E4CB24F8C0
:10191000500BCAF9E4CA24F8500379002224086065
:1019200010F8C3EC13FCEB13FBEA13FAE913F9D834
:10193000F122AA827443C0E07419C0E0C00AC00B4F
:101940008A82220511E4B51102051222AA8274309E
:101950002AFA24C6500A74072AFA300103430220E7
:101960008A82021932E582FAC4540FF582C002124B
:10197000194CD002740F5AF58202194CAA0CAB0D07
:10198000AC0EAD0FAE10751720EE2EFEED235401F8
:10199000FF4206EA2AFAEB33FBEC33FCED33FDC3DE
:1019A000EE95134008EEC39513FE430201D517D9F7
:1019B0008A0C8B0D8C0E8D0F8E102285820A8583EA
:1019C0000BE4F511F512AA18AB19AC1A8A828B83B5
:1019D0008CF0121FA6FD74012AF518E43BF5198C52
:1019E0001AEDFA7003021F4BBA25028003021F434F
:1019F000C205C206C207C208C209C20AC20BC20C93
:101A0000C202C203C2047513007514007515FFAB42
:101A100018AC19AD1A8B828C838DF0121FA6FAA315
:101A2000AB82AC838B188C198D1ABA25078A821267
:101A3000193280928A06BE3000402E8A06EE24C6F5
:101A4000402774FFB51513E51475F00AA4FEEA24C7
:101A5000D02EF51470BFD20680BBE51575F00AA430
:101A6000FEEA24D02EF51580ACBA2E0A74FFB51507
:101A7000A4751500809F8A06BE6100400E8A06EE9E
:101A8000248540075302DFD2018002C201BA20023E
:101A90008075BA2303021B16BA2A03021B1BBA2B3A
:101AA00002805FBA2D028055BA4202805FBA4303BA
:101AB000021B60BA4403021C9BBA4503021CB5BA60
:101AC0004603021CB1BA4703021CB9BA4903021CFF
:101AD0009BBA4C02803BBA4E03021CBDBA4F0302B4
:101AE0001CA2BA5003021C34BA5303021B84BA5519
:101AF00003021CA7BA5803021CAC021CE7D2050261
:101B00001A15D207021A15D208021A15D20A021A99
:101B100015D20B021A15D20C021A1574FFB5152036
:101B2000300A0BE51B14F8881B8614021A15E51BF6
:101B300024FEF8881B8606088607188E14021A15DC
:101B4000300A0BE51B14F8881B8615021A15E51BD5
:101B500024FEF8881B8606088607188E15021A15BB
:101B6000300A0AE51B14F8881B8602800FE51B2447
:101B7000FEF8881B8603088604188B028A821219D5
:101B800032021CECE51B24FDF8881B860308860442
:101B900008860518188B0C8C0D8D0E8B828C838D0E
:101BA000F0121FDBAB82AC838B1674FFB515038577
:101BB000161520051DC3E51695145016E514C3959A
:101BC00016F514AB141514EB600875822012193247
:101BD00080F1850C82850D83850EF0121FA6FBFA1D
:101BE0006029AB151515C3E464808BF063F0809514
:101BF000F050188A82121932AB0CAC0DAD0E0BBB33
:101C000000010C8B0C8C0D8D0E80C7200503021C6F
:101C1000ECC3E51695144003021CECE514C39516BD
:101C2000F514AB141514EB7003021CEC7582201232
:101C3000193280EEE51B24FDF8881B860308860414
:101C400008860518188B0C8C0D8D0EE50EFB30E701
:101C5000047A438013EB546060047A50800AEB30BE
:101C6000E6047A4980027A588A82C00212193275D3
:101C7000823A12193275823012193275827812192D
:101C800032D002BA4902800BBA50028006850D821A
:101C9000121965850C821219658051D20975130AD3
:101CA000804A751308804575130A804075131080AB
:101CB0003BD2028037D2038033D204802FE51B242D
:101CC000FDF8881B860308860408860518188B0C07
:101CD0008C0D8D0E8B828C838DF0E511121FC2A3AB
:101CE000E512121FC280058A8212193220020620D4
:101CF000030330045AE51B24FCF8881B860308867E
:101D0000040886050886061818188B0C8C0D8D0E95
:101D10008E0F750CA8750D00750E80850C1C850D39
:101D20001D850E1E7401251CFEE4351DFFAB1E8EA5
:101D30000C8F0D8B0E851C82851D83851EF0121F56
:101D4000A6FBFA70030219C68A8212193280CCE50A
:101D50001370030219C67B83300A2BE51B14F88825
:101D60001BE6FC3395E0FDFEFF8C0C8D0D8E0E8F77
:101D70000F20095EAC0C7D007E007F008C0C8D0D69
:101D80008E0E8F0F804C300B1FE51B24FCF8881B38
:101D900086040886050886060886071818188C0C1D
:101DA0008D0D8E0E8F0F802AE51B24FEF8881B8672
:101DB0000408860518ED3395E0FEFF8C0C8D0D8E22
:101DC0000E8F0F20090CAC0CAD0D7E007F008E0E27
:101DD0008F0F300C43E50C450D450E450F603974EF
:101DE00008B5130C758230C003121932D003802855
:101DF0007410B51323758230C003121932D003302A
:101E0000010C758278C003121932D003800A7582E2
:101E100058C003121932D003300925AC0CAD0DAEF9
:101E20000EE50FFF30E717C3E49CFCE49DFDE49E44
:101E3000FEE49FFF8C0C8D0D8E0E8F0F8002C20969
:101E4000751600D20D8B00751000C00012197CD0E1
:101E500000200D0DE510C4FCE6FD4CF6188803804B
:101E600002A6100516B20DE50C450D450E450F7086
:101E7000D68803E514700375140120061A2005178F
:101E8000E51604FCC39514500E758220C003121988
:101E900032D003151480E930090E75822DC003126B
:101EA0001932D00315148024E516602030070E7512
:101EB000822BC003121932D0031514800F30080C86
:101EC000758220C003121932D003151420051EACF0
:101ED000141514C3E5169C50273006047C3080028C
:101EE0007C208C82C003121932D00380E2C3E51635
:101EF00095145009E514C39516F514800375140064
:101F00008B00AB161516EB6022B20D200D0A08E609
:101F1000C4540FFB8B1080078603740F5BF510858C
:101F20001082C00012194CD00080D720050302197E
:101F3000C6AB141514EB70030219C6758220121972
:101F40003280EE8A821219320219C68511828512F8
:101F50008322AA82BA0A0810990280FB75990D1093
:101F6000990280FB8A9922FCABF0AA83A982749E15
:101F7000F582C2D1EC30E716D2D1E9F42401F9EAB6
:101F8000F43400FAEBF43400FBECF43400FC1218E7
:101F900074021825AA82AB83A2F73392D16002D2D1
:101FA000F7F582ACF02220F71430F6148883A8826B
:101FB00020F507E6A88375830022E280F7E49322E8
:101FC000E02220F71030F6118883A88220F507F66A
:101FD000A88375830022F280F7F022AA82AB83AC3B
:101FE000F07D007E008A828B838CF0121FA6FFA3F7
:101FF000AA82AB83EF60070DBD00EA0E80E78D82F9
:102000008E8322000000000000000000000000009D
:00000001FF
