:1000000002000375814F1200E1E582600302006F78
:10001000780079007A007B007C007D00EC4D601C4C
:1000200088828983E493A3A882A9838A828B83F040
:10003000A3AA82AB831CBCFFE31D80E07582007520
:1000400083007C007D00EC4D600AE4F0A31CBCFF43
:10005000F51D80F27582007583007C007D00EC4DFB
:10006000600AE4F0A31CBCFFF51D80F2120093129D
:10007000028F80FE4C61737420436F6D6D616E64FE
:10008000203D202575200A003C4E4F20464C4F4114
:10009000543E00E4F52FF5307531087532017533A3
:1000A0000975344075363D75370A7538D775393E50
:1000B000753AC3753BF5753C48753D3F753E8F7588
:1000C0003FC27540F575413F7542CD7543CC7544CF
:1000D0004C75454075468F7547C27548F575493F63
:1000E0002275E60075E70075D60075D70075CE005D
:1000F00075CF0075C60075C700758E1175BE007589
:10010000BF0090FFFA120C3B438780759852759B95
:1001100000759AFA759B1E75820022AA82AB837CB9
:1001200000C002C003C0041201A3D004D003D00257
:100130007D00BD08005054758200C002C003C00499
:10014000C0051201C1AE82AF83D005D004D003D068
:1001500002C3EA9EEB64808FF063F08095F050104C
:100160008DF005F07401800225E0D5F0FBFE8002E1
:100170007E00EE4204C002C003C004C00512019517
:10018000D005D004D003D0020D80A7C0041201A373
:10019000D0048C82227A02791E7816D8FED9FADA37
:1001A000F622227A03791E7816D8FED9FADAF622D8
:1001B00022AA8253C47F8AC5748055C4FABA80F8D3
:1001C00022AA8253C3BF75C33F43C340C29474186D
:1001D0004AF5821201B17A0A7B001ABAFF011BEAC2
:1001E0004B70F77582551201B1743F55C5FB7A000B
:1001F000758255C002C0031201B1D003D002D2945F
:1002000074F055C5FC7D00EC2AFAED3BC4CAC45419
:100210000F6ACA540FCA6ACA8A82F583227582009D
:100220001201C1120A81AA82AB83ACF0FDC002C0E8
:1002300003C004C00590000075F0A0743B120AFED4
:10024000AA82AB83ACF0FDE58124FCF5818A828B28
:10025000838CF0ED227582011201C1120A81AA82FB
:10026000AB83ACF0FDC002C003C004C00590000029
:1002700075F0A0743B120AFEAA82AB83ACF0FDE5D8
:100280008124FCF5818A828B838CF0ED22222275F9
:1002900082001201C1120A81AA82AB83ACF0FDC0B8
:1002A00002C003C004C00590000075F0A0743B12AA
:1002B0000AFE85822785832885F029F52AE5812491
:1002C000FCF5817582011201C1120A81AA82AB83F9
:1002D000ACF0FDC002C003C004C00590000075F082
:1002E000A0743B120AFE85822B85832C85F02DF5A8
:1002F0002EE58124FCF581AA357B00C002C0037481
:1003000074C0E07400C0E07480C0E0120C0FE5819E
:1003100024FBF581852F82853083120C4CAA82AB99
:1003200083ACF0FDC002C003C004C00585278285F0
:1003300028838529F0E52A120ACEAA82E58124FCC9
:10034000F581EA7003020895852F828530831201BA
:100350001BE532B5350280030205EB740AC0E07478
:10036000D7C0E07423C0E0743DC0E0853682853795
:10037000838538F0E539120C30AA82AB83ACF0FDEE
:10038000E58124FCF581C002C003C004C005854698
:10039000828547838548F0E549120ACEAA82E58125
:1003A00024FCF581EA604C740AC0E074D7C0E074A4
:1003B00023C0E0743DC0E08536828537838538F000
:1003C000E539120BA1AA82AB83ACF0FDE58124FCD8
:1003D000F581C002C003C004C005854682854783FD
:1003E0008548F0E549120A8DAA82E58124FCF58151
:1003F000EA700C8536468537478538488539497413
:100400000AC0E074D7C0E07423C0E0743DC0E0854A
:100410003A82853B83853CF0E53D120C30AA82ABE5
:1004200083ACF0FDE58124FCF581C002C003C0046B
:10043000C0058546828547838548F0E549120ACE86
:10044000AA82E58124FCF581EA604C740AC0E0745C
:10045000D7C0E07423C0E0743DC0E0853A82853B9C
:1004600083853CF0E53D120BA1AA82AB83ACF0FD85
:10047000E58124FCF581C002C003C004C0058546A7
:10048000828547838548F0E549120A8DAA82E58175
:1004900024FCF581EA700C85364685374785384857
:1004A000853949740AC0E074D7C0E07423C0E07491
:1004B0003DC0E0853E82853F838540F0E541120CDA
:1004C00030AA82AB83ACF0FDE58124FCF581C0024B
:1004D000C003C004C0058546828547838548F0E592
:1004E00049120ACEAA82E58124FCF581EA604C74A7
:1004F0000AC0E074D7C0E07423C0E0743DC0E0855A
:100500003E82853F838540F0E541120BA1AA82AB74
:1005100083ACF0FDE58124FCF581C002C003C0047A
:10052000C0058546828547838548F0E549120A8DD6
:10053000AA82E58124FCF581EA700C853A46853B68
:1005400047853C48853D49740AC0E074D7C0E074D3
:1005500023C0E0743DC0E08542828543838544F03A
:10056000E545120C30AA82AB83ACF0FDE58124FC9A
:10057000F581C002C003C004C0058546828547835B
:100580008548F0E549120ACEAA82E58124FCF5816E
:10059000EA604C740AC0E074D7C0E07423C0E07411
:1005A0003DC0E08542828543838544F0E545120BDA
:1005B000A1AA82AB83ACF0FDE58124FCF581C002E9
:1005C000C003C004C0058546828547838548F0E5A1
:1005D00049120A8DAA82E58124FCF581EA700C8516
:1005E0003E46853F47854048854149E531B535025E
:1005F0008003020885740AC0E074D7C0E07423C089
:10060000E0743DC0E08536828537838538F0E53972
:10061000120C30AA82AB83ACF0FDE58124FCF5819D
:10062000C002C003C004C005854682854783854853
:10063000F0E549120ACEAA82E58124FCF581EA6040
:100640004C740AC0E074D7C0E07423C0E0743DC0AD
:10065000E08536828537838538F0E539120BA1AA0B
:1006600082AB83ACF0FDE58124FCF581C002C003C0
:10067000C004C0058546828547838548F0E5491258
:100680000A8DAA82E58124FCF581EA700C853A4640
:10069000853B47853C48853D49740AC0E074D7C016
:1006A000E07423C0E0743DC0E0853A82853B8385D9
:1006B0003CF0E53D120C30AA82AB83ACF0FDE58145
:1006C00024FCF581C002C003C004C00585468285B4
:1006D00047838548F0E549120ACEAA82E58124FCC9
:1006E000F581EA604C740AC0E074D7C0E07423C09E
:1006F000E0743DC0E0853A82853B83853CF0E53D72
:10070000120BA1AA82AB83ACF0FDE58124FCF5813C
:10071000C002C003C004C005854682854783854862
:10072000F0E549120A8DAA82E58124FCF581EA7080
:100730000C853E46853F47854048854149740AC03F
:10074000E074D7C0E07423C0E0743DC0E0853E8211
:10075000853F838540F0E541120C30AA82AB83AC23
:10076000F0FDE58124FCF581C002C003C004C00592
:100770008546828547838548F0E549120ACEAA82DC
:10078000E58124FCF581EA604C740AC0E074D7C0AE
:10079000E07423C0E0743DC0E0853E82853F8385E0
:1007A00040F0E541120BA1AA82AB83ACF0FDE581DC
:1007B00024FCF581C002C003C004C00585468285C3
:1007C00047838548F0E549120A8DAA82E58124FC19
:1007D000F581EA700C854246854347854448854546
:1007E00049740AC0E074D7C0E07423C0E0743DC00F
:1007F000E08542828543838544F0E545120C30AAAA
:1008000082AB83ACF0FDE58124FCF581C002C0031E
:10081000C004C0058546828547838548F0E54912B6
:100820000ACEAA82E58124FCF581EA604C740AC0F4
:10083000E074D7C0E07423C0E0743DC0E08542821C
:100840008543838544F0E545120BA1AA82AB83ACB6
:10085000F0FDE58124FCF581C002C003C004C005A1
:100860008546828547838548F0E549120A8DAA822C
:10087000E58124FCF581EA700C8542468543478575
:100880004448854549E533B53503120A7FE534B55B
:100890003503120A80C02BC02CC02DC02E852782A4
:1008A0008528838529F0E52A120ABDAA82E58124DC
:1008B000FCF581EA7003020A2EE5274528452985C3
:1008C0002AF0C2F745F0604F740AC0E074D7C0E068
:1008D0007423C0E0743DC0E0854682854783854827
:1008E000F0E549120C30AA82AB83ACF0FDE581241F
:1008F000FCF581C002C003C004C005852B82852C95
:1009000083852DF0E52E120A8DAA82E58124FCF55F
:1009100081EA6003120A7CE52745284529852AF0EB
:10092000C2F745F0604F740AC0E074D7C0E074238A
:10093000C0E0743DC0E08546828547838548F0E588
:1009400049120BA1AA82AB83ACF0FDE58124FCF532
:1009500081C002C003C004C005852B82852C83851D
:100960002DF0E52E120ACEAA82E58124FCF581EA5B
:100970006003120A7DE52745284529852AF0C2F73C
:1009800045F0604C740AC0E074D7C0E07423C0E046
:10099000743DC0E08546828547838548F0E549126D
:1009A0000BA1AA82AB83ACF0FDE58124FCF581C0EC
:1009B00002C003C004C005852B82852C83852DF0E1
:1009C000E52E120ABDAA82E58124FCF581EA705B5E
:1009D000E52745284529852AF0C2F745F0604F7480
:1009E0000AC0E074D7C0E07423C0E0743DC0E08565
:1009F00046828547838548F0E549120C30AA82ABD0
:100A000083ACF0FDE58124FCF581C002C003C00485
:100A1000C005852B82852C83852DF0E52E120ABD1D
:100A2000AA82E58124FCF581EA6003120A7EC02BCC
:100A3000C02CC02DC02E8527828528838529F0E50E
:100A40002A120A8DAA82E58124FCF581EA6003124C
:100A5000028EC02BC02CC02DC02E852782852883F6
:100A60008529F0E52A120ACEAA82E58124FCF581C7
:100A7000EA700302028F12028D02028F22222222CA
:100A800022E4AC83AB82FAF9748E020C62FFA88177
:100A90001818120C8AD2D133E6400730E70B758262
:100AA000012220E70675820022C2D1120C6CE97087
:100AB00003F5822230D101B3E433F58222FFA8810D
:100AC0001818120C8A120C6CE96401F58222FFA836
:100AD000811818120C8AD2D133E6400730E70B7523
:100AE00082002220E70675820122C2D1120C6CE935
:100AF0007003F5822220D101B3E433F58222120D76
:100B000037BC0003020CD6EF60FA30D502B2D1E553
:100B100083B4FF03020CECE582B4FF03020CEC2566
:100B20008340072482400B020CD624831450030216
:100B30000CECF582EA8DF0A4A8F0EA8EF0A428F877
:100B4000E435F0F9EB8DF0A428E935F0F9E433CA87
:100B50008FF0A429F9EA35F0FAEBF88EF0A429F920
:100B6000EA35F0FAE433FBEC8DF0A429F9EA35F02C
:100B7000FAE43BFBE88FF0A42AFAEB35F0FBE43310
:100B8000CCFD8EF0A42AFAEB35F0FBE43CFCED8FB3
:100B9000F0A42BFBEC35F0FC20E703120D04020C53
:100BA000B5120D377900E583B58202800D5003122E
:100BB0000D65E583C39582120D7FE5D0C465D02015
:100BC000E117EA2DFAEB3EFBEC3FFC5009740112F1
:100BD0000D7FEC4480FC020CB5C3EA9DFAEB9EFB52
:100BE000EC9FFC500FC3E499F9E49AFAE49BFBE410
:100BF0009CFCB2D1120D04020CB50213E2858218DE
:100C000085831985F01A85091B900BFA020E4BC0DB
:100C100008858108E50824FBF51BE50824FBF88618
:100C20001808861908861A900BFA120E4BD0082263
:100C3000A8811818C6B2E7C6020BA1AA82AB838BA3
:100C4000048CCB8ACA75C83475985222AC83AB82A7
:100C50007A007900748E021400FCABF0AA83A9829A
:100C6000749EC2D1F582120D04020CB57901AA82DC
:100C7000E68F82B5821318E6B5F00E18E6B5830943
:100C800018E68A82B58202790022B4800FE5F070FE
:100C90000AE5837006E58270027F00EFB6801518C2
:100CA000B6001018B6000B18B60006080808760043
:100CB0002208080822B98003EA13B34010EA24018D
:100CC000FAE43BFBE43CFC50047C800582BC000E53
:100CD000BB000BBA0008E4F5F0F583F58222A2D13F
:100CE000E582138CF092F78B838A8222E4F583F5F8
:100CF0008275F080F4A2D11322E4F583F58275F0B9
:100D0000C0747F227804EC7011E58224F8500AF553
:100D100082E4C9CACBFCD8EF22EC7820058220E718
:100D200013D5820122C3E933F9EA33FAEB33FBEC42
:100D300033FCD8EA158222AA82AB83A2F73392D180
:100D40006002D2F7F582ACF0E58124F9F8E6FD08FF
:100D5000E6FE0886F008E6A2F73392D56002D2F7E5
:100D6000F583AFF022E582C583F582A2D133A2D507
:100D700092D11392D5ECCFFCEBCEFBEACDFA2260F8
:100D800040F82582500274FFF582E824F8501ECC0A
:100D9000CBCAF9E4CC24F85014CBCAF9E4CB24F83C
:100DA000500BCAF9E4CA24F85003790022240860E1
:100DB00010F8C3EC13FCEB13FBEA13FAE913F9D8B0
:100DC000F122AA8274D3C0E0740DC0E0C00AC00B47
:100DD0008A82220511E4B51102051222AA8274301A
:100DE0002AFA24C6500A74072AFA30000343022064
:100DF0008A82020DC2E582FAC4540FF582C0021243
:100E00000DDCD002740F5AF582020DDCAA0CAB0D7A
:100E1000AC0EAD0FAE10751720EE2EFEED23540173
:100E2000FF4206EA2AFAEB33FBEC33FCED33FDC359
:100E3000EE95134008EEC39513FE430201D517D972
:100E40008A0C8B0D8C0E8D0F8E102285820A858365
:100E50000BE4F511F512AA18AB19AC1A8A828B8330
:100E60008CF0121424FD74012AF518E43BF5198C5A
:100E70001AEDFA70030213DBBA250280030213D3C2
:100E8000C204C205C206C207C208C209C20AC20B16
:100E9000C201C202C2037513007514007515FFABC1
:100EA00018AC19AD1A8B828C838DF0121424FAA31E
:100EB000AB82AC838B188C198D1ABA25078A8212E3
:100EC0000DC280928A06BE3000402E8A06EE24C6ED
:100ED000402774FFB51513E51475F00AA4FEEA2443
:100EE000D02EF51470BFD20580BBE51575F00AA4AD
:100EF000FEEA24D02EF51580ACBA2E0A74FFB51583
:100F0000A4751500809F8A06BE6100400E8A06EE19
:100F1000248540075302DFD2008002C200BA2002BB
:100F20008075BA2303020FA6BA2A03020FABBA2BAD
:100F300002805FBA2D028055BA4202805FBA430335
:100F4000020FF0BA440302112BBA4503021145BA4D
:100F50004603021141BA4703021149BA490302117B
:100F60002BBA4C02803BBA4E0302114DBA4F03021A
:100F70001132BA50030210C4BA5303021014BA5506
:100F800003021137BA580302113C021177D204024E
:100F90000EA5D206020EA5D207020EA5D209020E98
:100FA000A5D20A020EA5D20B020EA574FFB515201C
:100FB00030090BE51B14F8881B8614020EA5E51BEF
:100FC00024FEF8881B8606088607188E14020EA5D4
:100FD00030090BE51B14F8881B8615020EA5E51BCE
:100FE00024FEF8881B8606088607188E15020EA5B3
:100FF00030090AE51B14F8881B8602800FE51B24C4
:10100000FEF8881B8603088604188B028A82120D5C
:10101000C202117CE51B24FDF8881B8603088604A8
:1010200008860518188B0C8C0D8D0E8B828C838D89
:10103000F0121459AB82AC838B1674FFB51503857F
:10104000161520041DC3E51695145016E514C39516
:1010500016F514AB141514EB6008758220120DC23E
:1010600080F1850C82850D83850EF0121424FBFA25
:101070006029AB151515C3E464808BF063F080958F
:10108000F050188A82120DC2AB0CAC0DAD0E0BBB2A
:1010900000010C8B0C8C0D8D0E80C72004030211F7
:1010A0007CC3E5169514400302117CE514C3951624
:1010B000F514AB141514EB700302117C7582201229
:1010C0000DC280EEE51B24FDF8881B86030886040C
:1010D00008860518188B0C8C0D8D0EE50EFB30E77D
:1010E000047A438013EB546060047A50800AEB303A
:1010F000E6047A4980027A588A82C002120DC275CB
:10110000823A120DC2758230120DC2758278120DAC
:10111000C2D002BA4902800BBA50028006850D8205
:10112000120DF5850C82120DF58051D20875130A47
:10113000804A751308804575130A80407513108026
:101140003BD2018037D2028033D203802FE51B24AB
:10115000FDF8881B860308860408860518188B0C82
:101160008C0D8D0E8B828C838DF0E511121440A3B3
:10117000E51212144080058A82120DC22001062059
:10118000020330035AE51B24FCF8881B86030886FB
:10119000040886050886061818188B0C8C0D8D0E11
:1011A0008E0F750C88750D00750E80850C1C850DD5
:1011B0001D850E1E7401251CFEE4351DFFAB1E8E21
:1011C0000C8F0D8B0E851C82851D83851EF01214DD
:1011D00024FBFA7003020E568A82120DC280CCE5FF
:1011E000137003020E567B4F30092BE51B14F88851
:1011F0001BE6FC3395E0FDFEFF8C0C8D0D8E0E8FF3
:101200000F20085EAC0C7D007E007F008C0C8D0DE5
:101210008E0E8F0F804C300A1FE51B24FCF8881BB4
:1012200086040886050886060886071818188C0C98
:101230008D0D8E0E8F0F802AE51B24FEF8881B86ED
:101240000408860518ED3395E0FEFF8C0C8D0D8E9D
:101250000E8F0F20080CAC0CAD0D7E007F008E0EA3
:101260008F0F300B43E50C450D450E450F6039746B
:1012700008B5130C758230C003120DC2D00380284C
:101280007410B51323758230C003120DC2D0033021
:10129000000C758278C003120DC2D003800A7582DB
:1012A00058C003120DC2D003300825AC0CAD0DAEF2
:1012B0000EE50FFF30E717C3E49CFCE49DFDE49EC0
:1012C000FEE49FFF8C0C8D0D8E0E8F0F8002C208E6
:1012D000751600D20C8B00751000C000120E0CD0D9
:1012E00000200C0DE510C4FCE6FD4CF618880380C8
:1012F00002A6100516B20CE50C450D450E450F7003
:10130000D68803E514700375140120051A2004170C
:10131000E51604FCC39514500E758220C003120D0F
:10132000C2D003151480E930080E75822DC0031257
:101330000DC2D00315148024E516602030060E750A
:10134000822BC003120DC2D0031514800F30070C7E
:10135000758220C003120DC2D003151420041EACE8
:10136000141514C3E5169C50273005047C30800208
:101370007C208C82C003120DC2D00380E2C3E5162C
:1013800095145009E514C39516F5148003751400DF
:101390008B00AB161516EB6022B20C200C0A08E687
:1013A000C4540FFB8B1080078603740F5BF5108508
:1013B0001082C000120DDCD00080D7200403020E82
:1013C00056AB141514EB7003020E56758220120DE5
:1013D000C280EE8A82120DC2020E568511828512DB
:1013E0008322AA82BA0A0810990280FB75990D100F
:1013F000990280FB8A9922FCABF0AA83A982749E91
:10140000F582C2D1EC30E716D2D1E9F42401F9EA31
:10141000F43400FAEBF43400FBECF43400FC120D6D
:1014200004020CB520F71430F6148883A88220F546
:1014300007E6A88375830022E280F7E49322E02286
:1014400020F71030F6118883A88220F507F6A883CC
:1014500075830022F280F7F022AA82AB83ACF07D84
:10146000007E008A828B838CF0121424FFA3AA8250
:10147000AB83EF60070DBD00EA0E80E78D828E839F
:10148000220000000000000000000000000000003A
:00000001FF
